:020000020000FC
:100000000FE50DBF04E00EBF00E007BB01E00ABB37
:100010000FE704BB0FEF0FEF02BB05BB08BB34E0DB
:100020009F99FDCF38D09F9B01C0F9CF20B3922F6D
:100030002030F1F000E9020FD8F01CD008D000D039
:100040009F99EDCFD89A20D0D89821D0F9CF269576
:100050003A95E9F7122FF0E0E6E600E0E10FF01F35
:10006000149118BB089540792430191203780018B0
:10007000D898D5CF9F7000E1091B902F06E0909F84
:1000800094E690199F939F934F91522F06C04F91E2
:100090005AE0521B02C04DE051EF4A95F1F74DE096
:0800A0005A95D9F751EF0895BC
:00000001FF
