:020000020000FC
:080000000C9410000C94C500E3
:100018000C94BC000C94B2000FE50DBF04E00EBFB9
:1000280003E005BF00E40BBF00E001BB0FEF02BB1C
:100038000FEB07BBC49AC09A01E004BBA89A07E279
:100048000ABBD89AD99ADA9A35D3E89400E050E0F6
:1000580080E14DD103E00EBD7894503041F051302D
:10006800A9F0523021F1533019F15430F9F0C49A03
:10007800C09A46D1A7D32A2D362D2295232739E4B5
:10008800231710F419D2E9CF71D2E7CF00E009BFE6
:10009800EEF3C49AC09A34D195D32A2D362D2295E1
:1000A800232739E4231780F725D2D7CF38C01AC0C1
:1000B800C49AC09A25D186D32A2D362D2295232776
:1000C80039E4231708F734D222272A2D372D229511
:1000D800232730E3370F231708F4BFCFA898A6D3F8
:1000E800A89ABBCFC49AC09A0BD100E0091519F49D
:1000F8000AEF081510F41EF4B0CFE894AECF62D31F
:100108002A2D362D2295232739E4231730F59CD143
:1001180070FFD8D0A8988AD3A89A68949ECF46D260
:1001280088249924E4D003E00EBD07D0E894891808
:10013800282D392D47D33AD290CF00E0802E902E2B
:1001480099B390784EF009B300780917D9F3902F36
:100158008394C1F79394B6F7089596CF0F93839538
:100168008A3131F0689400E00DBD0CBD0F911895EF
:1001780080E1DD9A00E00DBD0CBD0F9103E00EBDDE
:1001880018950F93DD98839BDD9A523019F4849B60
:100198001FC004C0513011F4879B1DC000B3859B5C
:1001A8005395869B5A9507FF0DC0859BFECF869B6E
:1001B800FCCF5F3F09F454E0553009F450E0E8946F
:1001C800B9D0ECCF533061F000E40ABF0F91189515
:1001D80070953AD1F9CF16F06894F6CFE894F4CF39
:1001E8000DD1839B07C0849B05C0859B03C0869B5C
:1001F80001C0F7CF1BD3839B75E0849B78E0859B78
:1002080076E0869B77E012D3839BFDCF849BFBCF60
:10021800859BF9CF869BF7CFE894D6CF00000000E6
:100228008F938FE08A95F1F78F9108959AE09F93C5
:10023800F5DF9F919A95D9F708950F931F9308E1D9
:100248001DE01A95F1F70A95D9F71F910F910895B6
:100258000F931F9303E31DE01A95F1F70A95D9F759
:100268001F910F9108950F931F9301EF1DE01A95A9
:10027800F1F70A95D9F71F910F9108959BE19F9384
:10028800F2DF9F919A95D9F70895CB99FECFEBDFCE
:10029800CB99FECFDA98D1DFDA9AF0DFD998CDDFA3
:1002A80020E1001F111F10F0D89801C0D89AD998E2
:1002B800C4DFD99AC2DF2A95A1F7D99AD89AD3DF91
:1002C800D2DF08950F931F9310E000E00A2DDDDFC1
:1002D80010E00AE0DADF10E0072DD7DF10E0062D86
:1002E800D4DF10E0052DD1DF1F910F91089508E0AC
:1002F80009BF00E208BF0FE109BD07E008BD089586
:1003080000E50DB90EB10FB1C098C49A8FD20AEAB0
:100318000FB9779BFECF9FB00FB9779BFECF8FB0F9
:100328002F932FE092222F91B09AB49A282D392D2D
:10033800089503D2F3E0E6E808D2503041F0513096
:1003480051F0523061F0533091F0543061F0F3E0E5
:10035800E8E9FBD10FC0F3E0EAEAF7D10BC0F3E01C
:10036800ECEBF3D107C0F3E0E0EEEFD103C0F3E02C
:10037800EEECEBD1F3E0E2EFE8D1BAD10895012A2F
:100388002A2A4D61696E204D656E752A2A2A2A002F
:10039800044652455120202052554E2020484F4CAB
:1003A80044000452554E20202020484F4C44202021
:1003B8004341500004484F4C4420202043415020E2
:1003C8002020414C4D000443415020202020414C26
:1003D8004D2020465245510004414C4D20202020FC
:1003E80046524551202052554E00032020202020FF
:1003F80020205E5E5E5E202020202000F4E0EAE1FE
:10040800A4D1F4E0ECE2A1D1F4E0EEE39ED170D106
:1004180008950120202020202020332E3520202060
:100428002020200004332E362020202020202020C9
:100438002020332E37000320202020202020332E98
:100448003820202020202000F4E0EAE67ED1F4E0E5
:10045800ECE77BD171FF18C0F4E0EEE776D148D124
:100468000895012A2A2A2A2A566F6C746167652A18
:100478002A2A2A000200034341505455524520209D
:10048800202020206F666600F4E0EEEA5ED130D1CD
:100498000895012A2A2A2A2A566F6C746167652AE8
:1004A8002A2A2A00020003436170747572652020AD
:1004B80020202020206F6E00F4E0E6ED46D1F4E025
:1004C800E8EE43D1F4E0EAEE40D112D10895012AD2
:1004D8002A2A2A2A566F6C746167652A2A2A2A00F2
:1004E80002000352554E2020202020202020204D9D
:1004F8004F444500F5E0E2E128D1F5E0E4E225D1FA
:10050800F5E0E6E222D1F4D00895012A2A2A2A2A1F
:10051800566F6C746167652A2A2A2A00020003480C
:100528004F4C4420202020202020204D4F444500BF
:10053800F5E0EEE40AD1F5E0E0E607D1F5E0E2E621
:1005480004D1D6D00895012A2A2A2A2A566F6C7413
:100558006167652A2A2A2A00020003414C41524D4C
:10056800202020202020204D4F444500F5E0E0E9E0
:10057800ECD0BED00895012A2A2A2A2A566F6C7414
:100588006167652A2A2A2A0004206F76657220741A
:100598006865206C696D6974200003202020202084
:1005A800202020202020202020202000F5E0EAEC38
:1005B800CCD0F5E0ECEDC9D0F5E0EEEDC6D098D0A2
:1005C8000895012A2A2A4652455155454E43592A2B
:1005D8002A2A2A000500034B485A202020202020E0
:1005E80020302E3553454300F6E0EEE0AED0F6E07D
:1005F800E0E2ABD0F6E0E4E4A8D07AD00895F6E0E3
:10060800E2E3A3D075D0014241434B4C49474854DB
:100618002020204354524C00042020202020454E06
:1006280041424C4544202020200004202020204422
:10063800495341424C454420202020000335732073
:1006480020494E414354495645204F464600000034
:1006580000008F938FE08A95F1F78F910895F7DF67
:100668006A95E9F77A95D9F7089560E074E0F7DFBD
:1006780008950F930CE50DB90EB10FB10F910895C0
:100688000F93C398C4980EB10FB10F910FB90EB163
:1006980007FFFDCF0FB1C49A08950F93C39AC4986A
:1006A8000EB10FB10F910FB90EB107FFFDCF0FB10A
:1006B800C49A0895DEDFD9DF09E3E2DFC8DF09E382
:1006C800DFDFC5DF0EE1DCDFC2DF00E5D9DFBFDF3A
:1006D8000CE6D6DFCADF07E7D3DFB9DF0CE0D0DFEF
:1006E800B6DF01E0CDDFB3DF06E0CADFB0DF089593
:1006F800C0DF40E14F93F0E0E0E600E8C1DFA7DFAC
:100708000191CBDFA4DF4A95D9F74F914F93F0E0E1
:10071800E0E700E9B5DF9BDF0191BFDF98DF4A958D
:10072800D9F74F91F0E0E0E800EAAADF90DF019105
:10073800B4DF8DDF4A95D9F7089590E3A0E2F0E0A1
:10074800E0E6A1939A95E9F70895AF931F93D0E057
:10075800C0E60591013061F0609610E0A6E0023035
:1007680061F010E0A6E0053041F0043009F0609631
:100778000591003021F10993FBCFB5E0139590E284
:100788001CD01A13FACF942D18D09EE216D0932DB0
:1007980014D0922D12D0912D10D00B130BD090E2C3
:1007A8000CD090E20AD090E208D090E206D090E215
:1007B80004D005C096E501D00895999308951F9136
:1007C800AF91089518D00F932D2C4E2C0FE0D02206
:1007D8001D2CE0223E2C0095202222944022429497
:1007E800A42C732C622C512C00E3100E200E300E1A
:1007F800400E0F910895132F022F20E1FF24EE24BD
:10080800DD24FF27000F111FDD1CEE1CFF1C2A959D
:1008180009F40895E0E132913D5F33FD3083308182
:10082800305D37FD3083ED30B1F7ECCF0F931F9378
:1008380004E611E21A95F1F70A95D9F71F910F917D
:02084800089511
:00000001FF
