:020000020000FC
:080000000C9410000C94B700F1
:10001C000C94B0000FE50DBF04E00EBF03E005BF6C
:10002C0000E40BBF00E001BB0FEF02BB0FEB07BB03
:10003C00C49AC09A01E004BBA89A07E20ABBD89AFA
:10004C00D99ADA9AF1D27894E89400E050E05030E2
:10005C0041F05130A9F0523021F1533019F15430A4
:10006C00F9F0C49AC09A39D167D32A2D362D22952E
:10007C00232739E4231710F40CD2E9CF64D2E7CF4D
:10008C0000E009BFEEF3C49AC09A27D155D32A2DAC
:10009C00362D2295232739E4231780F718D2D7CF92
:1000AC0038C01AC0C49AC09A18D146D32A2D362DFE
:1000BC002295232739E4231708F727D222272A2D44
:1000CC00372D2295232730E3370F231708F4BFCFA2
:1000DC00A89866D3A89ABBCFC49AC09AFED000E069
:1000EC00091519F40AEF081510F41EF4B0CFE894B2
:1000FC00AECF22D32A2D362D2295232739E4231770
:10010C0040F58FD170FFCBD0A8984AD3A89A6894A9
:10011C009ECF39D288249924D7D003E00EBD07D0C6
:10012C00E8948918282D392D07D32DD290CF00E0D3
:10013C00802E902E99B390784EF009B30078091761
:10014C00D9F3902F8394C1F79394B6F700E009BFCD
:10015C00089594CF0F93689400E00DBD0CBD0F91E2
:10016C0018950F93523019F4849B1FC004C0513062
:10017C0011F4879B1DC000B3859B5395869B5A95A4
:10018C0007FF0DC0859BFECF869BFCCF5F3F09F41C
:10019C0054E0553009F450E0E894B9D0ECCF53302A
:1001AC0061F000E40ABF0F91189570953AD1F9CF20
:1001BC0016F06894F6CFE894F4CF0DD1839B07C06A
:1001CC00849B05C0859B03C0869B01C0F7CFE8D2FA
:1001DC00839B75E0849B78E0859B76E0869B77E03B
:1001EC00DFD2839BFDCF849BFBCF859BF9CF869B76
:1001FC00F7CFE894D6CF000000008F938FE08A955C
:10020C00F1F78F9108959AE09F93F5DF9F919A955E
:10021C00D9F708950F931F9308E11DE01A95F1F794
:10022C000A95D9F71F910F9108950F931F9303E32C
:10023C001DE01A95F1F70A95D9F71F910F910895C2
:10024C000F931F9301EF1DE01A95F1F70A95D9F75B
:10025C001F910F9108959BE19F93F2DF9F919A95C7
:10026C00D9F70895CB99FECFEBDFCB99FECFDA9877
:10027C00D1DFDA9AF0DFD998CDDF20E1001F111F12
:10028C0010F0D89801C0D89AD998C4DFD99AC2DF97
:10029C002A95A1F7D99AD89AD3DFD2DF08950F9374
:1002AC001F9310E000E00A2DDDDF10E00AE0DADF3A
:1002BC0010E0072DD7DF10E0062DD4DF10E0052D60
:1002CC00D1DF1F910F91089508E009BF08E008BF26
:1002DC000FE109BD07E008BD089500E50DB90EB1A9
:1002EC000FB1C098C49A5CD20AEA0FB9779BFECFC3
:1002FC009FB00FB9779BFECF8FB02F932FE0922238
:10030C002F91B09AB49A282D392D0895D0D1F3E0BD
:10031C00E4E6D5D1503041F0513051F0523061F01B
:10032C00533091F0543061F0F3E0E6E7C8D10FC0E0
:10033C00F3E0E8E8C4D10BC0F3E0EAE9C0D107C0B0
:10034C00F3E0EEEBBCD103C0F3E0ECEAB8D1F3E0A0
:10035C00E0EDB5D187D10895012A2A2A4D61696E45
:10036C00204D656E752A2A2A2A00044652455120D2
:10037C00202052554E2020484F4C44000452554EDC
:10038C0020202020484F4C4420204341500004485A
:10039C004F4C44202020434150202020414C4D0004
:1003AC000443415020202020414C4D2020465245F2
:1003BC00510004414C4D2020202046524551202014
:1003CC0052554E0003202020202020205E5E5E5ED1
:1003DC00202020202000F3E0E8EF71D1F4E0EAE0E7
:1003EC006ED1F4E0ECE16BD13DD1089501202020D9
:1003FC0020202020332E35202020202020000433E4
:10040C002E3620202020202020202020332E3700A4
:10041C000320202020202020332E382020202020B4
:10042C002000F4E0E8E44BD1F4E0EAE548D171FFB8
:10043C0018C0F4E0ECE543D115D10895012A2A2A1D
:10044C002A2A566F6C746167652A2A2A2A000200D0
:10045C0003434150545552452020202020206F66E4
:10046C006600F4E0ECE82BD1FDD00895012A2A2A8D
:10047C002A2A566F6C746167652A2A2A2A000200A0
:10048C000343617074757265202020202020206F3A
:10049C006E00F4E0E4EB13D1F4E0E6EC10D1F4E000
:1004AC00E8EC0DD1DFD00895012A2A2A2A2A566FAA
:1004BC006C746167652A2A2A2A0002000352554E81
:1004CC002020202020202020204D4F444500F4E007
:1004DC00E0EFF5D0F5E0E2E0F2D0F5E0E4E0EFD0CB
:1004EC00C1D00895012A2A2A2A2A566F6C74616792
:1004FC00652A2A2A2A00020003484F4C4420202057
:10050C0020202020204D4F444500F5E0ECE2D7D0D0
:10051C00F5E0EEE3D4D0F5E0E0E4D1D0A3D008953B
:10052C00012A2A2A2A2A566F6C746167652A2A2A9C
:10053C002A00020003414C41524D20202020202053
:10054C00204D4F444500F5E0EEE6B9D08BD0089530
:10055C00012A2A2A2A2A566F6C746167652A2A2A6C
:10056C002A0004206F76657220746865206C696DB2
:10057C00697420000320202020202020202020200F
:10058C00202020202000F5E0E8EA99D0F5E0EAEB05
:10059C0096D0F5E0ECEB93D065D00895012A2A2A89
:1005AC004652455155454E43592A2A2A2A000500E0
:1005BC00034B485A20202020202020302E35534534
:1005CC004300000000008F938FE08A95F1F78F9124
:1005DC000895F7DF6A95E9F77A95D9F7089560E001
:1005EC0074E0F7DF08950F930CE50DB90EB10FB160
:1005FC000F9108950F93C398C4980EB10FB10F913A
:10060C000FB90EB107FFFDCF0FB1C49A08950F9328
:10061C00C39AC4980EB10FB10F910FB90EB107FF69
:10062C00FDCF0FB1C49A0895DEDFD9DF09E3E2DF15
:10063C00C8DF09E3DFDFC5DF0EE1DCDFC2DF00E589
:10064C00D9DFBFDF0CE6D6DFCADF07E7D3DFB9DFC0
:10065C000CE0D0DFB6DF01E0CDDFB3DF06E0CADFB0
:10066C00B0DF0895C0DF40E14F93F0E0E0E600E832
:10067C00C1DFA7DF0191CBDFA4DF4A95D9F74F91FA
:10068C004F93F0E0E0E700E9B5DF9BDF0191BFDFBE
:10069C0098DF4A95D9F74F91F0E0E0E800EAAADF3D
:1006AC0090DF0191B4DF8DDF4A95D9F7089590E37F
:1006BC00A0E2F0E0E0E6A1939A95E9F70895AF93F4
:1006CC001F93D0E0C0E60591013061F0609610E018
:1006DC00A6E0023061F010E0A6E0053041F00430F5
:1006EC0009F060960591003021F10993FBCFB5E03C
:1006FC00139590E21CD01A13FACF942D18D09EE2C9
:10070C0016D0932D14D0922D12D0912D10D00B13F6
:10071C000BD090E20CD090E20AD090E208D090E29C
:10072C0006D090E204D005C096E501D008959993C7
:10073C0008951F91AF91089518D00F932D2C4E2C26
:10074C000FE0D0221D2CE0223E2C0095202222947A
:10075C0040224294A42C732C622C512C00E3100EDA
:10076C00200E300E400E0F910895132F022F20E112
:10077C00FF24EE24DD24FF27000F111FDD1CEE1CCF
:10078C00FF1C2A9509F40895E0E132913D5F33FD99
:10079C0030833081305D37FD3083ED30B1F7ECCFF5
:1007AC000F931F9304E611E21A95F1F70A95D9F706
:0607BC001F910F9108954A
:00000001FF
