:020000020000FC
:020000001CC022
:10001C000C94420000E00DBD0CBD08E009BF00E2ED
:10002C0008BF0EE109BD04E808BD789408950FE5FA
:10003C000DBF04E00EBF00E001BB0FEF07BBC49A7D
:10004C0001E004BBA89A00E40ABB8CD0E3DF03E018
:10005C000EBD04D0E894F4D016D0F9CF00E0802E79
:10006C00902E99B3FEF309B30917E1F3902F839403
:10007C00C9F79394BEF708950F93689400E00DBDF3
:10008C000CBD0F911895B1D08BD00AE39016D0F01F
:10009C00F0E0EAEAB2D0F0E0EEEBAFD081D0012A8A
:1000AC002A2A6F766572666C6F772A2A2A2A0000D4
:1000BC000200037E7E7E7E3E31356B687A7E7E7ECC
:1000CC007E7E0000F0E0E4EE98D0F0E0E6EF95D014
:1000DC00F0E0E8EF92D064D0012A2A2A465245512A
:1000EC0055454E43592A2A2A2A00020003424F4EF4
:1000FC0055532A2A485A2A302E35534543000000BE
:10010C0000008F938FE08A95F1F78F910895F7DFB8
:10011C006A95E9F77A95D9F7089560E074E0F7DF0E
:10012C0008950F930CE50DB90EB10FB10F91089511
:10013C000F93C398C4980EB10FB10F910FB90EB1B4
:10014C0007FFFDCF0FB1C49A08950F93C39AC498BB
:10015C000EB10FB10F910FB90EB107FFFDCF0FB15B
:10016C00C49A0895DEDFD9DF09E3E2DFC8DF09E3D3
:10017C00DFDFC5DF0EE1DCDFC2DF00E5D9DFBFDF8B
:10018C000CE6D6DFCADF07E7D3DFB9DF0CE0D0DF40
:10019C00B6DF01E0CDDFB3DF06E0CADFB0DF0895E4
:1001AC00C0DF40E14F93F0E0E0E600E8C1DFA7DFFD
:1001BC000191CBDFA4DF4A95D9F74F914F93F0E033
:1001CC00E0E700E9B5DF9BDF0191BFDF98DF4A95DF
:1001DC00D9F74F91F0E0E0E800EAAADF90DF019157
:1001EC00B4DF8DDF4A95D9F7089590E3A0E2F0E0F3
:1001FC00E0E6A1939A95E9F70895D0E0C0E6059161
:10020C00013031F0609610E0B6E0023031F06096CB
:10021C0005910030A1F00993FBCF139590E20DD01E
:10022C001B13FBCF952D09D0942D07D0932D05D002
:10023C00922D03D0912D01D002C099930895089569
:10024C000F9317D02D2C4E2C6F2C0FE0D0221D2C81
:10025C00E0223E2CF0225F2C00952022229440229A
:10026C00429400E3100E200E300E400E500E0F91F3
:10027C0008958918192D082D20E1FF24EE24DD2482
:10028C00FF27000F111FDD1CEE1CFF1C2A9509F423
:10029C000895E0E132913D5F33FD30833081305D74
:0A02AC0037FD3083ED30B1F7ECCFE1
:00000001FF
