:020000020000FC
:080000000C9419000C9460003F
:10001C000C94590000E00DBD0CBD08E009BF00E2D6
:10002C0008BF789408950FE50DBF04E00EBF00E003
:10003C0001BB0FEF07BBC49A01E004BBA89A00E414
:10004C000ABBBCD0E7DFB1E003E00EBDB0FF06D0C9
:10005C00B0FD17D0E89420D13ED0F6CF0CE309BD0B
:10006C0004EA08BD00E0802E902E99B34EF009B33F
:10007C000917E1F3902FD0F38394C1F79394B6F75B
:10008C0008950EE109BD04E808BD00E0802E902E15
:10009C0099B3FEF309B30917E1F3902F8394C9F7D1
:1000AC009394BEF708950F93689400E00DBD0CBDBA
:1000BC000F9118950F930FB70F931F9300B3007602
:1000CC0020D110B31076102309F0B0951F910F9129
:1000DC000FBF0F911895B5D08FD0B0FF02C0B0FDF7
:1000EC001DC0F1E0E2E0B5D0F1E0E4E1B2D0F1E026
:1000FC00E6E1AFD081D0012A2A2A46726571756576
:10010C006E63792A2A2A2A000200034D47464D2A9B
:10011C002A2A485A2A2A2A3153454300F1E0ECE3B3
:10012C0098D0F1E0EEE495D0F1E0E0E592D064D027
:10013C00012A2A2A4652455155454E43592A2A2A04
:10014C002A000200034D47464D2A2A485A2A2A31D2
:10015C002F3253454300000000008F938FE08A95A7
:10016C00F1F78F910895F7DF6A95E9F77A95D9F74A
:10017C00089560E074E0F7DF08950F930CE50DB976
:10018C000EB10FB10F9108950F93C398C4980EB18F
:10019C000FB10F910FB90EB107FFFDCF0FB1C49A7C
:1001AC0008950F93C39AC4980EB10FB10F910FB964
:1001BC000EB107FFFDCF0FB1C49A0895DEDFD9DF72
:1001CC0009E3E2DFC8DF09E3DFDFC5DF0EE1DCDFD7
:1001DC00C2DF00E5D9DFBFDF0CE6D6DFCADF07E7F9
:1001EC00D3DFB9DF0CE0D0DFB6DF01E0CDDFB3DF6A
:1001FC0006E0CADFB0DF0895C0DF40E14F93F0E0C6
:10020C00E0E600E8C1DFA7DF0191CBDFA4DF4A9570
:10021C00D9F74F914F93F0E0E0E700E9B5DF9BDFB2
:10022C000191BFDF98DF4A95D9F74F91F0E0E0E8F4
:10023C0000EAAADF90DF0191B4DF8DDF4A95D9F790
:10024C00089590E3A0E2F0E0E0E6A1939A95E9F737
:10025C000895D0E0C0E60591013031F0609610E0D1
:10026C00B6E0023031F0609605910030A1F00993B0
:10027C00FBCF139590E20DD01B13FBCF952D09D01E
:10028C00942D07D0932D05D0922D03D0912D01D014
:10029C0002C09993089508950F9317D02D2C4E2CCE
:1002AC006F2C0FE0D0221D2CE0223E2CF0225F2C74
:1002BC000095202222944022429400E3100E200E3E
:1002CC00300E400E500E0F9108958918192D082DDF
:1002DC0020E1FF24EE24DD24FF27000F111FDD1C7D
:1002EC00EE1CFF1C2A9509F40895E0E132913D5F64
:1002FC0033FD30833081305D37FD3083ED30B1F725
:10030C00ECCF44E651E25A95F1F74A95D9F70895A6
:00000001FF
