:020000020000FC
:100000000C9402000FE50DBF04E00EBF03E005BF36
:1000100000E40BBF00E001BB0FEF02BB07BBC49ABB
:1000200001E004BBA89A00E40ABB71D018D0B1E08B
:1000300005D0E1D019D0369A9927FACF03C0349B66
:1000400001C0FCCF00E006B984B095B010D123D137
:10005000089508E009BF00E208BF7894089504EC11
:1000600007B904EC06B9089595D06FD0F0E0E2E846
:1000700099D0F0E0E4E996D0F0E0E6E993D065D0DD
:100080000895012A2A2A2A2A566F6C746167652A04
:100090002A2A2A000200034155544F52554E20206F
:1000A000202020564D314100000000008F938FE04A
:1000B0008A95F1F78F910895F7DF6A95E9F77A95B8
:1000C000D9F7089560E074E0F7DF08950F930CE529
:1000D0000DB90EB10FB10F9108950F93C398C49845
:1000E0000EB10FB10F910FB90EB107FFFDCF0FB1D8
:1000F000C49A08950F93C39AC4980EB10FB10F918B
:100100000FB90EB107FFFDCF0FB1C49A0895DEDF1E
:10011000D9DF09E3E2DFC8DF09E3DFDFC5DF0EE196
:10012000DCDFC2DF00E5D9DFBFDF0CE6D6DFCADFE8
:1001300007E7D3DFB9DF0CE0D0DFB6DF01E0CDDFCA
:10014000B3DF06E0CADFB0DF0895C0DF40E14F93C0
:10015000F0E0E0E600E8C1DFA7DF0191CBDFA4DF3C
:100160004A95D9F74F914F93F0E0E0E700E9B5DF0A
:100170009BDF0191BFDF98DF4A95D9F74F91F0E0FF
:10018000E0E800EAAADF90DF0191B4DF8DDF4A9555
:10019000D9F7089590E3A0E2F0E0E0E6A1939A9504
:1001A000E9F70895AF931F93D0E0C0E605910130C1
:1001B00031F0609610E0A6E0023031F060960591D3
:1001C0000030B1F00993FBCF139590E20FD01A13D2
:1001D000FBCF942D0BD09EE209D0932D07D0922D0A
:1001E00005D0912D03D096E501D002C099930895D2
:1001F0001F91AF9108950F931FD02D2C4E2C6F2C73
:100200000FE0D0221D2CE0223E2CF0225F2C009526
:10021000202222944022429400E3100E200E300E41
:10022000400E500E0F9108950F9300E3200F300FF2
:10023000400F500F0F910895132F022F20E1FF243C
:10024000EE24DD24FF27000F111FDD1CEE1CFF1C18
:100250002A9509F40895E0E132913D5F33FD308342
:100260003081305D37FD3083ED30B1F7ECCF33278F
:10027000082D192D22E3222F5527442760E13695BA
:10028000279510F4400F511F57954795379527959F
:100290006A95B9F708956AE0662FCC24DD24EE2430
:1002A000FF1811E2221F331F441F551F1A9509F42E
:1002B0000895CC1CDD1CEE1CFF1CC61AD70AE80AE8
:1002C000F90A30F4C60ED71EE81EF91E8894EACF4C
:1002D0000894E8CF44E651E25A95F1F74A95D9F7E8
:0202E00008957F
:00000001FF
