:020000020000FC
:100000000FE50DBF04E00EBF0FEF07BB0ABB02BB3D
:10001000A89AAE9A00E001BB04BB10E020EF76E0A6
:1000200031E00FE307BB9E9909C0989901C0FBCF4F
:1000300029D0989BF8CF10B319D0F5CF23D09E9B31
:10004000F2CF492F470F10F004D0EDCF90E001D050
:10005000EACFF0E0E2E600E0E90FF01F949198BBF0
:10006000089540792430191203780018912F2095B3
:100070009223309530FD02D003D0089592950895D3
:100080003BBB089544E651E25A95F1F74A95D9F7FA
:020090000895D1
:00000001FF
