:020000020000FC
:100000000FE50DBF04E00EBF0FEF07BB0ABB02BB3D
:10001000A89AAE9A00E001BB04BB10E021E00FE318
:1000200008BB01E00BBB10B3CF990BC023D09F9B43
:1000300004C003E02BB320272BBBCE9ACE989F9908
:10004000FECF9E99F0CFC89B12951F7036E0310FFE
:100050000DF001C019E0F0E0EAE600E0E10FF01F6A
:10006000149118BB9E9BFECFDECF4079243019122D
:10007000037800181F930F9301E214E61A95F1F725
:0A0080000A95D9F70F911F9108951A
:00000001FF
