:020000020000FC
:100000000FE50DBF04E00EBF0FEF07BB01E00ABB19
:100010000FE704BB0FEF07BB02BB05BB00E408BB47
:100020009F99FECF3DD09F9B01C0FACF20B3922F66
:100030002F702030E9F006E0020FD0F09F9BFECF3A
:1000400009D01AD000C0D89A1AD0D8981FD09F9B38
:10005000E7CFF9CF122FF0E0E6E600E0E10FF01F66
:10006000149118BB089540792430191203780018B0
:10007000D89800E408BBD4CF907F90950895422F84
:10008000592F5A95F1F74A95D9F708955AE0422F1A
:10009000541B452F592F5A95F1F74A95D9F70895D2
:1000A0004DE051EF4A95F1F74DE05A95D9F751EFF0
:0200B0000895B1
:00000001FF
