:020000020000FC
:100000000FE50DBF04E00EBF0FEF07BBC49A01E080
:1000100004BBA89A6CD0D5D017D0FDCF30EA20E031
:1000200099B31AE009B3091741F017E090E028F0FE
:1000300012E090E8839409F493941A95F1F72A95C5
:1000400081F73A9571F7089595D06FD0F0E0E0E62A
:1000500099D0F0E0E2E796D0F0E0E6E793D065D003
:10006000012A2A2A4652455155454E43592A2A2AE1
:100070002A0002200000035C2F5C2F5C484552548C
:100080005A2F5C2F5C2F5C00000000008F938FE0E4
:100090008A95F1F78F910895F7DF6A95E9F77A95D8
:1000A000D9F7089560E074E0F7DF08950F930CE549
:1000B0000DB90EB10FB10F9108950F93C398C49865
:1000C0000EB10FB10F910FB90EB107FFFDCF0FB1F8
:1000D000C49A08950F93C39AC4980EB10FB10F91AB
:1000E0000FB90EB107FFFDCF0FB1C49A0895DEDF3F
:1000F000D9DF09E3E2DFC8DF09E3DFDFC5DF0EE1B7
:10010000DCDFC2DF00E5D9DFBFDF0CE6D6DFCADF08
:1001100007E7D3DFB9DF0CE0D0DFB6DF01E0CDDFEA
:10012000B3DF06E0CADFB0DF0895C0DF40E14F93E0
:10013000F0E0E0E600E8C1DFA7DF0191CBDFA4DF5C
:100140004A95D9F74F914F93F0E0E0E700E9B5DF2A
:100150009BDF0191BFDF98DF4A95D9F74F91F0E01F
:10016000E0E800EAAADF90DF0191B4DF8DDF4A9575
:10017000D9F7089590E3A0E2F0E0E0E6A1939A9524
:10018000E9F70895D0E0C0E60591013021F06096CE
:10019000023031F060960591003091F00993FBCF69
:1001A000139590E20BD01B13FBCF942D07D0932D0A
:1001B00005D0922D03D0912D01D002C099930895BE
:1001C00008950F93282C492C0FE08022182C9022A0
:1001D000392C00952022229440224294F2E0E0E162
:1001E00000E0E10DF01F1490F2E0E0E100E0E20D2C
:1001F000F01F2490F2E0E0E100E0E30DF01F349006
:10020000F2E0E0E100E0E40DF01F44900F9108956A
:10021000303132333435363738394142434445463C
:0E02200044E651E25A95F1F74A95D9F7089550
:00000001FF
