:020000020000FC
:100000000C9402000FE50DBF04E00EBF03E005BF36
:1000100000E40BBF00E001BB0FEF02BB07BBC49ABB
:1000200001E004BBA89A00E40ABBC2D0789431D0A6
:100030000F9300E0901619F48016C9F00F91E89420
:100040003BD044D0CC24DD24EE24FF2400272227FB
:100050003327442755276627772788279927AA27F4
:10006000CC27DD27A89887D186D1A89AE0CF2DC0CC
:100070000F930FB70F931F9300B3009500787BD1B8
:1000800010B310951078101711F0E89401C068941F
:10009000189500E407BB00E50DB90AEA0FB9C0984E
:1000A000779BFECF9FB02F932FE092222F910FB915
:1000B000779BFECF8FB008952BD13ED1EDD0089520
:1000C00004EC07B904EE06B908956894B4D00EF4B0
:1000D000F6F0F0E0E8EEB7D0F0E0EAEFB4D0F0E010
:1000E000ECEFB1D083D00895012A2A2A2A2A566F2C
:1000F0006C746167652A2A2A2A0002000352554E51
:10010000202020202020202045564D314300F1E0C2
:10011000E4E299D0F1E0E6E396D0F1E0E8E393D0B1
:1001200065D085CF012A2A2A2A2A566F6C74616706
:10013000652A2A2A2A000200034341505455524599
:100140002020202045564D314200000000008F93B2
:100150008FE08A95F1F78F910895F7DF6A95E9F7B7
:100160007A95D9F7089560E074E0F7DF08950F936A
:100170000CE50DB90EB10FB10F9108950F93C3980F
:10018000C4980EB10FB10F910FB90EB107FFFDCF9B
:100190000FB1C49A08950F93C39AC4980EB10FB1CA
:1001A0000F910FB90EB107FFFDCF0FB1C49A08959B
:1001B000DEDFD9DF09E3E2DFC8DF09E3DFDFC5DF28
:1001C0000EE1DCDFC2DF00E5D9DFBFDF0CE6D6DF02
:1001D000CADF07E7D3DFB9DF0CE0D0DFB6DF01E02D
:1001E000CDDFB3DF06E0CADFB0DF0895C0DF40E156
:1001F0004F93F0E0E0E600E8C1DFA7DF0191CBDF3D
:10020000A4DF4A95D9F74F914F93F0E0E0E700E97A
:10021000B5DF9BDF0191BFDF98DF4A95D9F74F919A
:10022000F0E0E0E800EAAADF90DF0191B4DF8DDFC3
:100230004A95D9F7089590E3A0E2F0E0E0E6A193B3
:100240009A95E9F70895AF931F93D0E0C0E6059122
:10025000013031F0609610E0A6E0023031F0609697
:1002600005910030B1F00993FBCF139590E20FD0C8
:100270001A13FBCF942D0BD09EE209D0932D07D0FB
:10028000922D05D0912D03D096E501D002C099930F
:1002900008951F91AF9108950F931FD02D2C4E2CD0
:1002A0006F2C0FE0D0221D2CE0223E2CF0225F2C80
:1002B0000095202222944022429400E3100E200E4A
:1002C000300E400E500E0F9108950F9300E3200F53
:1002D000300F400F500F0F910895132F022F20E180
:1002E000FF24EE24DD24FF27000F111FDD1CEE1C70
:1002F000FF1C2A9509F40895E0E132913D5F33FD3A
:1003000030833081305D37FD3083ED30B1F7ECCF95
:100310003327082D192D25E0222F5527442760E18A
:100320003695279510F4400F511F579547953795EF
:1003300027956A95B9F7089564E0662FCC24DD24EB
:10034000EE24FF1811E2221F331F441F551F1A9578
:1003500009F40895CC1CDD1CEE1CFF1CC61AD70A3C
:10036000E80AF90A30F4C60ED71EE81EF91E889472
:10037000EACF0894E8CF44E651E25A95F1F74A955E
:04038000D9F708950C
:00000001FF
