:020000020000FC
:100000000FE50DBF04E00EBF0FEF07BB0ABB02BB3D
:10001000A89AAE9A00E001BB04BB10E020EF76E0A6
:1000200032E00FE307BB9E990AC0989901C0FBCF4D
:100030002DD0989BF8CF61E010B31CD0F4CF26D020
:100040009E9BF1CF60FF16D06627492F470F10F017
:1000500004D0E9CF90E001D0E6CFF0E0EAE600E09E
:10006000E90FF01F949198BB08954079243019123C
:1000700003780018912F20959223309530FF02D0FD
:1000800003D00895929508953BBB089544E651E24C
:0A0090005A95F1F74A95D9F7089543
:00000001FF
